{
  "contractName": "OwnableHelloWorld",
  "abi": [
    {
      "anonymous": false,
      "inputs": [
        {
          "indexed": true,
          "internalType": "address",
          "name": "previousOwner",
          "type": "address"
        },
        {
          "indexed": true,
          "internalType": "address",
          "name": "newOwner",
          "type": "address"
        }
      ],
      "name": "OwnershipTransferred",
      "type": "event"
    },
    {
      "inputs": [],
      "name": "OwnableMessage",
      "outputs": [
        {
          "internalType": "string",
          "name": "",
          "type": "string"
        }
      ],
      "stateMutability": "view",
      "type": "function",
      "constant": true
    },
    {
      "inputs": [],
      "name": "message",
      "outputs": [
        {
          "internalType": "string",
          "name": "",
          "type": "string"
        }
      ],
      "stateMutability": "view",
      "type": "function",
      "constant": true
    },
    {
      "inputs": [],
      "name": "owner",
      "outputs": [
        {
          "internalType": "address",
          "name": "",
          "type": "address"
        }
      ],
      "stateMutability": "view",
      "type": "function",
      "constant": true
    },
    {
      "inputs": [],
      "name": "renounceOwnership",
      "outputs": [],
      "stateMutability": "nonpayable",
      "type": "function"
    },
    {
      "inputs": [
        {
          "internalType": "address",
          "name": "newOwner",
          "type": "address"
        }
      ],
      "name": "transferOwnership",
      "outputs": [],
      "stateMutability": "nonpayable",
      "type": "function"
    },
    {
      "inputs": [
        {
          "internalType": "string",
          "name": "newMessage",
          "type": "string"
        }
      ],
      "name": "changeMessage",
      "outputs": [],
      "stateMutability": "nonpayable",
      "type": "function"
    },
    {
      "inputs": [],
      "name": "getMessage",
      "outputs": [
        {
          "internalType": "string",
          "name": "",
          "type": "string"
        }
      ],
      "stateMutability": "view",
      "type": "function",
      "constant": true
    },
    {
      "inputs": [
        {
          "internalType": "string",
          "name": "newOwnableMessage",
          "type": "string"
        }
      ],
      "name": "changeOwnableMessage",
      "outputs": [],
      "stateMutability": "nonpayable",
      "type": "function"
    },
    {
      "inputs": [],
      "name": "getOwnableMessage",
      "outputs": [
        {
          "internalType": "string",
          "name": "",
          "type": "string"
        }
      ],
      "stateMutability": "view",
      "type": "function",
      "constant": true
    }
  ],
  "bytecode": "0x60806040526040518060400160405280600d81526020017f48656c6c6f2c20576f726c64210000000000000000000000000000000000000081525060019080519060200190620000519291906200016c565b506040518060400160405280600f81526020017f4f776e61626c65204d6573736167650000000000000000000000000000000000815250600290805190602001906200009f9291906200016c565b50348015620000ad57600080fd5b506000620000c06200016460201b60201c565b9050806000806101000a81548173ffffffffffffffffffffffffffffffffffffffff021916908373ffffffffffffffffffffffffffffffffffffffff1602179055508073ffffffffffffffffffffffffffffffffffffffff16600073ffffffffffffffffffffffffffffffffffffffff167f8be0079c531659141344cd1fd0a4f28419497f9722a3daafe3b4186f6b6457e060405160405180910390a35062000281565b600033905090565b8280546200017a906200021c565b90600052602060002090601f0160209004810192826200019e5760008555620001ea565b82601f10620001b957805160ff1916838001178555620001ea565b82800160010185558215620001ea579182015b82811115620001e9578251825591602001919060010190620001cc565b5b509050620001f99190620001fd565b5090565b5b8082111562000218576000816000905550600101620001fe565b5090565b600060028204905060018216806200023557607f821691505b602082108114156200024c576200024b62000252565b5b50919050565b7f4e487b7100000000000000000000000000000000000000000000000000000000600052602260045260246000fd5b610c6480620002916000396000f3fe608060405234801561001057600080fd5b50600436106100935760003560e01c8063b2aa501a11610066578063b2aa501a146100f8578063be666d0c14610116578063ce6d41de14610134578063e21f37ce14610152578063f2fde38b1461017057610093565b806360fd1c4f14610098578063715018a6146100b45780638942f165146100be5780638da5cb5b146100da575b600080fd5b6100b260048036038101906100ad91906108d9565b61018c565b005b6100bc6101a6565b005b6100d860048036038101906100d391906108d9565b6102e0565b005b6100e26102fa565b6040516100ef9190610a08565b60405180910390f35b610100610323565b60405161010d9190610a23565b60405180910390f35b61011e610431565b60405161012b9190610a23565b60405180910390f35b61013c6104bf565b6040516101499190610a23565b60405180910390f35b61015a610551565b6040516101679190610a23565b60405180910390f35b61018a600480360381019061018591906108b0565b6105df565b005b80600190805190602001906101a2929190610790565b5050565b6101ae610788565b73ffffffffffffffffffffffffffffffffffffffff166101cc6102fa565b73ffffffffffffffffffffffffffffffffffffffff1614610222576040517f08c379a000000000000000000000000000000000000000000000000000000000815260040161021990610a65565b60405180910390fd5b600073ffffffffffffffffffffffffffffffffffffffff1660008054906101000a900473ffffffffffffffffffffffffffffffffffffffff1673ffffffffffffffffffffffffffffffffffffffff167f8be0079c531659141344cd1fd0a4f28419497f9722a3daafe3b4186f6b6457e060405160405180910390a360008060006101000a81548173ffffffffffffffffffffffffffffffffffffffff021916908373ffffffffffffffffffffffffffffffffffffffff160217905550565b80600290805190602001906102f6929190610790565b5050565b60008060009054906101000a900473ffffffffffffffffffffffffffffffffffffffff16905090565b606061032d610788565b73ffffffffffffffffffffffffffffffffffffffff1661034b6102fa565b73ffffffffffffffffffffffffffffffffffffffff16146103a1576040517f08c379a000000000000000000000000000000000000000000000000000000000815260040161039890610a65565b60405180910390fd5b600280546103ae90610b76565b80601f01602080910402602001604051908101604052809291908181526020018280546103da90610b76565b80156104275780601f106103fc57610100808354040283529160200191610427565b820191906000526020600020905b81548152906001019060200180831161040a57829003601f168201915b5050505050905090565b6002805461043e90610b76565b80601f016020809104026020016040519081016040528092919081815260200182805461046a90610b76565b80156104b75780601f1061048c576101008083540402835291602001916104b7565b820191906000526020600020905b81548152906001019060200180831161049a57829003601f168201915b505050505081565b6060600180546104ce90610b76565b80601f01602080910402602001604051908101604052809291908181526020018280546104fa90610b76565b80156105475780601f1061051c57610100808354040283529160200191610547565b820191906000526020600020905b81548152906001019060200180831161052a57829003601f168201915b5050505050905090565b6001805461055e90610b76565b80601f016020809104026020016040519081016040528092919081815260200182805461058a90610b76565b80156105d75780601f106105ac576101008083540402835291602001916105d7565b820191906000526020600020905b8154815290600101906020018083116105ba57829003601f168201915b505050505081565b6105e7610788565b73ffffffffffffffffffffffffffffffffffffffff166106056102fa565b73ffffffffffffffffffffffffffffffffffffffff161461065b576040517f08c379a000000000000000000000000000000000000000000000000000000000815260040161065290610a65565b60405180910390fd5b600073ffffffffffffffffffffffffffffffffffffffff168173ffffffffffffffffffffffffffffffffffffffff1614156106cb576040517f08c379a00000000000000000000000000000000000000000000000000000000081526004016106c290610a45565b60405180910390fd5b8073ffffffffffffffffffffffffffffffffffffffff1660008054906101000a900473ffffffffffffffffffffffffffffffffffffffff1673ffffffffffffffffffffffffffffffffffffffff167f8be0079c531659141344cd1fd0a4f28419497f9722a3daafe3b4186f6b6457e060405160405180910390a3806000806101000a81548173ffffffffffffffffffffffffffffffffffffffff021916908373ffffffffffffffffffffffffffffffffffffffff16021790555050565b600033905090565b82805461079c90610b76565b90600052602060002090601f0160209004810192826107be5760008555610805565b82601f106107d757805160ff1916838001178555610805565b82800160010185558215610805579182015b828111156108045782518255916020019190600101906107e9565b5b5090506108129190610816565b5090565b5b8082111561082f576000816000905550600101610817565b5090565b600061084661084184610ab6565b610a85565b90508281526020810184848401111561085e57600080fd5b610869848285610b34565b509392505050565b60008135905061088081610c17565b92915050565b600082601f83011261089757600080fd5b81356108a7848260208601610833565b91505092915050565b6000602082840312156108c257600080fd5b60006108d084828501610871565b91505092915050565b6000602082840312156108eb57600080fd5b600082013567ffffffffffffffff81111561090557600080fd5b61091184828501610886565b91505092915050565b61092381610b02565b82525050565b600061093482610ae6565b61093e8185610af1565b935061094e818560208601610b43565b61095781610c06565b840191505092915050565b600061096f602683610af1565b91507f4f776e61626c653a206e6577206f776e657220697320746865207a65726f206160008301527f64647265737300000000000000000000000000000000000000000000000000006020830152604082019050919050565b60006109d5602083610af1565b91507f4f776e61626c653a2063616c6c6572206973206e6f7420746865206f776e65726000830152602082019050919050565b6000602082019050610a1d600083018461091a565b92915050565b60006020820190508181036000830152610a3d8184610929565b905092915050565b60006020820190508181036000830152610a5e81610962565b9050919050565b60006020820190508181036000830152610a7e816109c8565b9050919050565b6000604051905081810181811067ffffffffffffffff82111715610aac57610aab610bd7565b5b8060405250919050565b600067ffffffffffffffff821115610ad157610ad0610bd7565b5b601f19601f8301169050602081019050919050565b600081519050919050565b600082825260208201905092915050565b6000610b0d82610b14565b9050919050565b600073ffffffffffffffffffffffffffffffffffffffff82169050919050565b82818337600083830152505050565b60005b83811015610b61578082015181840152602081019050610b46565b83811115610b70576000848401525b50505050565b60006002820490506001821680610b8e57607f821691505b60208210811415610ba257610ba1610ba8565b5b50919050565b7f4e487b7100000000000000000000000000000000000000000000000000000000600052602260045260246000fd5b7f4e487b7100000000000000000000000000000000000000000000000000000000600052604160045260246000fd5b6000601f19601f8301169050919050565b610c2081610b02565b8114610c2b57600080fd5b5056fea2646970667358221220055b4dd9c571c15deec28fb7daa6a7b3e1c4ddef7050bcac42c15eaf67f52c2264736f6c63430008000033",
  "immutableReferences": {},
  "source": "pragma solidity ^0.8.0;\n\nimport \"@openzeppelin/contracts/access/Ownable.sol\";\n\ncontract OwnableHelloWorld is Ownable{\n    string public message = \"Hello, World!\";\n    string public OwnableMessage = \"Ownable Message\";\n\n    function changeMessage(string memory newMessage) public {\n        message = newMessage;\n    }\n\n    function getMessage() public view returns (string memory) {\n        return message;\n    }\n\n    function changeOwnableMessage(string memory newOwnableMessage) public {\n        OwnableMessage = newOwnableMessage;\n    }\n\n    function getOwnableMessage() public view onlyOwner returns (string memory) {\n        return OwnableMessage;\n    }\n\n}\n",
  "sourcePath": "/home/iketai/Desktop/solidity-handbook/codes/First_OpenZeppelin_Project/contracts/OwnableHelloWorld.sol",
  "compiler": {
    "name": "solc",
    "version": "0.8.0+commit.c7dfd78e.Emscripten.clang"
  },
  "schemaVersion": "3.4.1",
  "updatedAt": "2021-06-18T14:23:09.150Z",
  "networkType": "ethereum",
  "devdoc": {
    "kind": "dev",
    "methods": {
      "owner()": {
        "details": "Returns the address of the current owner."
      },
      "renounceOwnership()": {
        "details": "Leaves the contract without owner. It will not be possible to call `onlyOwner` functions anymore. Can only be called by the current owner. NOTE: Renouncing ownership will leave the contract without an owner, thereby removing any functionality that is only available to the owner."
      },
      "transferOwnership(address)": {
        "details": "Transfers ownership of the contract to a new account (`newOwner`). Can only be called by the current owner."
      }
    },
    "version": 1
  },
  "userdoc": {
    "kind": "user",
    "methods": {},
    "version": 1
  }
}