{
  "contractName": "Lottery",
  "abi": [
    {
      "stateMutability": "payable",
      "type": "fallback",
      "payable": true
    },
    {
      "inputs": [],
      "name": "TICKET_PRICE",
      "outputs": [
        {
          "internalType": "uint256",
          "name": "",
          "type": "uint256"
        }
      ],
      "stateMutability": "view",
      "type": "function",
      "constant": true
    },
    {
      "inputs": [
        {
          "internalType": "uint256",
          "name": "",
          "type": "uint256"
        }
      ],
      "name": "tickets",
      "outputs": [
        {
          "internalType": "address",
          "name": "",
          "type": "address"
        }
      ],
      "stateMutability": "view",
      "type": "function",
      "constant": true
    },
    {
      "inputs": [],
      "name": "winner",
      "outputs": [
        {
          "internalType": "address",
          "name": "",
          "type": "address"
        }
      ],
      "stateMutability": "view",
      "type": "function",
      "constant": true
    },
    {
      "inputs": [],
      "name": "buy",
      "outputs": [],
      "stateMutability": "payable",
      "type": "function",
      "payable": true
    },
    {
      "inputs": [],
      "name": "drawWinner",
      "outputs": [],
      "stateMutability": "nonpayable",
      "type": "function"
    },
    {
      "inputs": [],
      "name": "withdrawETH",
      "outputs": [],
      "stateMutability": "nonpayable",
      "type": "function"
    }
  ],
  "bytecode": "0x608060405234801561001057600080fd5b506105e4806100206000396000f3fe6080604052600436106100595760003560e01c80631a95f15f1461006457806350b447121461008f578063a6f2ae3a146100cc578063b2185bb1146100d6578063dfbf53ae146100ed578063e086e5ec146101185761005a565b5b61006261012f565b005b34801561007057600080fd5b506100796101a7565b604051610086919061047d565b60405180910390f35b34801561009b57600080fd5b506100b660048036038101906100b1919061041b565b6101b2565b6040516100c39190610462565b60405180910390f35b6100d461012f565b005b3480156100e257600080fd5b506100eb6101f1565b005b3480156100f957600080fd5b5061010261033d565b60405161010f9190610462565b60405180910390f35b34801561012457600080fd5b5061012d610363565b005b662386f26fc10000341461014257600080fd5b6000339080600181540180825580915050600190039060005260206000200160009091909190916101000a81548173ffffffffffffffffffffffffffffffffffffffff021916908373ffffffffffffffffffffffffffffffffffffffff160217905550565b662386f26fc1000081565b600081815481106101c257600080fd5b906000526020600020016000915054906101000a900473ffffffffffffffffffffffffffffffffffffffff1681565b600073ffffffffffffffffffffffffffffffffffffffff16600160009054906101000a900473ffffffffffffffffffffffffffffffffffffffff1673ffffffffffffffffffffffffffffffffffffffff161461024c57600080fd5b600060014361025b9190610498565b60405160200161026b919061047d565b604051602081830303815290604052805190602001209050600080805490508260001c6102989190610508565b815481106102cf577f4e487b7100000000000000000000000000000000000000000000000000000000600052603260045260246000fd5b9060005260206000200160009054906101000a900473ffffffffffffffffffffffffffffffffffffffff16600160006101000a81548173ffffffffffffffffffffffffffffffffffffffff021916908373ffffffffffffffffffffffffffffffffffffffff16021790555050565b600160009054906101000a900473ffffffffffffffffffffffffffffffffffffffff1681565b600160009054906101000a900473ffffffffffffffffffffffffffffffffffffffff1673ffffffffffffffffffffffffffffffffffffffff163373ffffffffffffffffffffffffffffffffffffffff16146103bd57600080fd5b3373ffffffffffffffffffffffffffffffffffffffff166108fc479081150290604051600060405180830381858888f19350505050158015610403573d6000803e3d6000fd5b50565b60008135905061041581610597565b92915050565b60006020828403121561042d57600080fd5b600061043b84828501610406565b91505092915050565b61044d816104cc565b82525050565b61045c816104fe565b82525050565b60006020820190506104776000830184610444565b92915050565b60006020820190506104926000830184610453565b92915050565b60006104a3826104fe565b91506104ae836104fe565b9250828210156104c1576104c0610539565b5b828203905092915050565b60006104d7826104de565b9050919050565b600073ffffffffffffffffffffffffffffffffffffffff82169050919050565b6000819050919050565b6000610513826104fe565b915061051e836104fe565b92508261052e5761052d610568565b5b828206905092915050565b7f4e487b7100000000000000000000000000000000000000000000000000000000600052601160045260246000fd5b7f4e487b7100000000000000000000000000000000000000000000000000000000600052601260045260246000fd5b6105a0816104fe565b81146105ab57600080fd5b5056fea2646970667358221220cc75ad774cd8cbe744aa5bb6ae5394344f6795a9e01a594fed4a5e319b30be2e64736f6c63430008000033",
  "immutableReferences": {},
  "source": "pragma solidity ^0.8.0;\n\ncontract Lottery {\n    uint public constant TICKET_PRICE = 0.01 ether;\n\n    address[] public tickets;\n    address public winner;\n\n    function buy () public payable {\n        require(msg.value == TICKET_PRICE);\n        tickets.push(msg.sender);\n    }\n\n    fallback() external payable {\n        buy();\n    }\n\n    function drawWinner () public {\n        require(winner == address(0));\n        bytes32 rand = keccak256(abi.encode(block.number-1));\n        winner = tickets[uint(rand) % tickets.length];\n    }\n\n    function withdrawETH () public {\n        require(msg.sender == winner);\n        payable(msg.sender).transfer(address(this).balance);\n    }\n\n}\n",
  "sourcePath": "/home/iketai/Desktop/solidity-handbook/codes/09_Lottery/contracts/Lottery.sol",
  "compiler": {
    "name": "solc",
    "version": "0.8.0+commit.c7dfd78e.Emscripten.clang"
  },
  "schemaVersion": "3.4.1",
  "updatedAt": "2021-06-21T14:27:12.564Z",
  "networkType": "ethereum",
  "devdoc": {
    "kind": "dev",
    "methods": {},
    "version": 1
  },
  "userdoc": {
    "kind": "user",
    "methods": {},
    "version": 1
  }
}